{
  "contractName": "Lottery",
  "abi": [
    {
      "inputs": [
        {
          "internalType": "address",
          "name": "_dai",
          "type": "address"
        },
        {
          "internalType": "address",
          "name": "_vrfCoordinator",
          "type": "address"
        },
        {
          "internalType": "address",
          "name": "_link",
          "type": "address"
        },
        {
          "internalType": "bytes32",
          "name": "_keyhash",
          "type": "bytes32"
        }
      ],
      "stateMutability": "nonpayable",
      "type": "constructor"
    },
    {
      "anonymous": false,
      "inputs": [
        {
          "indexed": true,
          "internalType": "address",
          "name": "previousOwner",
          "type": "address"
        },
        {
          "indexed": true,
          "internalType": "address",
          "name": "newOwner",
          "type": "address"
        }
      ],
      "name": "OwnershipTransferred",
      "type": "event"
    },
    {
      "anonymous": false,
      "inputs": [
        {
          "indexed": false,
          "internalType": "uint256",
          "name": "randomnessGet",
          "type": "uint256"
        },
        {
          "indexed": false,
          "internalType": "uint256",
          "name": "randomness",
          "type": "uint256"
        }
      ],
      "name": "Randomness",
      "type": "event"
    },
    {
      "anonymous": false,
      "inputs": [
        {
          "indexed": false,
          "internalType": "bytes32",
          "name": "requestId",
          "type": "bytes32"
        }
      ],
      "name": "RequestRandomness",
      "type": "event"
    },
    {
      "inputs": [],
      "name": "daiAddress",
      "outputs": [
        {
          "internalType": "address",
          "name": "",
          "type": "address"
        }
      ],
      "stateMutability": "view",
      "type": "function",
      "constant": true
    },
    {
      "inputs": [],
      "name": "drawStartTime",
      "outputs": [
        {
          "internalType": "uint256",
          "name": "",
          "type": "uint256"
        }
      ],
      "stateMutability": "view",
      "type": "function",
      "constant": true
    },
    {
      "inputs": [],
      "name": "keyHash",
      "outputs": [
        {
          "internalType": "bytes32",
          "name": "",
          "type": "bytes32"
        }
      ],
      "stateMutability": "view",
      "type": "function",
      "constant": true
    },
    {
      "inputs": [],
      "name": "linkFee",
      "outputs": [
        {
          "internalType": "uint256",
          "name": "",
          "type": "uint256"
        }
      ],
      "stateMutability": "view",
      "type": "function",
      "constant": true
    },
    {
      "inputs": [],
      "name": "lotteryState",
      "outputs": [
        {
          "internalType": "enum Lottery.LotteryState",
          "name": "",
          "type": "uint8"
        }
      ],
      "stateMutability": "view",
      "type": "function",
      "constant": true
    },
    {
      "inputs": [
        {
          "internalType": "uint256",
          "name": "",
          "type": "uint256"
        },
        {
          "internalType": "uint256",
          "name": "",
          "type": "uint256"
        }
      ],
      "name": "numberToPlayers",
      "outputs": [
        {
          "internalType": "address",
          "name": "",
          "type": "address"
        }
      ],
      "stateMutability": "view",
      "type": "function",
      "constant": true
    },
    {
      "inputs": [],
      "name": "oneBet",
      "outputs": [
        {
          "internalType": "uint256",
          "name": "",
          "type": "uint256"
        }
      ],
      "stateMutability": "view",
      "type": "function",
      "constant": true
    },
    {
      "inputs": [],
      "name": "owner",
      "outputs": [
        {
          "internalType": "address",
          "name": "",
          "type": "address"
        }
      ],
      "stateMutability": "view",
      "type": "function",
      "constant": true
    },
    {
      "inputs": [
        {
          "internalType": "uint256",
          "name": "",
          "type": "uint256"
        }
      ],
      "name": "players",
      "outputs": [
        {
          "internalType": "address",
          "name": "",
          "type": "address"
        }
      ],
      "stateMutability": "view",
      "type": "function",
      "constant": true
    },
    {
      "inputs": [
        {
          "internalType": "uint256",
          "name": "",
          "type": "uint256"
        }
      ],
      "name": "randomNumbers",
      "outputs": [
        {
          "internalType": "uint256",
          "name": "",
          "type": "uint256"
        }
      ],
      "stateMutability": "view",
      "type": "function",
      "constant": true
    },
    {
      "inputs": [],
      "name": "randomnessGet",
      "outputs": [
        {
          "internalType": "uint256",
          "name": "",
          "type": "uint256"
        }
      ],
      "stateMutability": "view",
      "type": "function",
      "constant": true
    },
    {
      "inputs": [
        {
          "internalType": "bytes32",
          "name": "requestId",
          "type": "bytes32"
        },
        {
          "internalType": "uint256",
          "name": "randomness",
          "type": "uint256"
        }
      ],
      "name": "rawFulfillRandomness",
      "outputs": [],
      "stateMutability": "nonpayable",
      "type": "function"
    },
    {
      "inputs": [],
      "name": "recentWinNumber",
      "outputs": [
        {
          "internalType": "uint256",
          "name": "",
          "type": "uint256"
        }
      ],
      "stateMutability": "view",
      "type": "function",
      "constant": true
    },
    {
      "inputs": [
        {
          "internalType": "uint256",
          "name": "",
          "type": "uint256"
        }
      ],
      "name": "recentWinners",
      "outputs": [
        {
          "internalType": "address",
          "name": "",
          "type": "address"
        }
      ],
      "stateMutability": "view",
      "type": "function",
      "constant": true
    },
    {
      "inputs": [],
      "name": "renounceOwnership",
      "outputs": [],
      "stateMutability": "nonpayable",
      "type": "function"
    },
    {
      "inputs": [],
      "name": "rewardRate",
      "outputs": [
        {
          "internalType": "uint256",
          "name": "",
          "type": "uint256"
        }
      ],
      "stateMutability": "view",
      "type": "function",
      "constant": true
    },
    {
      "inputs": [],
      "name": "timeInterval",
      "outputs": [
        {
          "internalType": "uint256",
          "name": "",
          "type": "uint256"
        }
      ],
      "stateMutability": "view",
      "type": "function",
      "constant": true
    },
    {
      "inputs": [
        {
          "internalType": "address",
          "name": "newOwner",
          "type": "address"
        }
      ],
      "name": "transferOwnership",
      "outputs": [],
      "stateMutability": "nonpayable",
      "type": "function"
    },
    {
      "inputs": [],
      "name": "setTestNumber",
      "outputs": [],
      "stateMutability": "nonpayable",
      "type": "function"
    },
    {
      "inputs": [],
      "name": "getTime",
      "outputs": [
        {
          "internalType": "uint256",
          "name": "",
          "type": "uint256"
        }
      ],
      "stateMutability": "view",
      "type": "function",
      "constant": true
    },
    {
      "inputs": [],
      "name": "getPlayers",
      "outputs": [
        {
          "internalType": "address[]",
          "name": "",
          "type": "address[]"
        }
      ],
      "stateMutability": "view",
      "type": "function",
      "constant": true
    },
    {
      "inputs": [],
      "name": "getRecentWinners",
      "outputs": [
        {
          "internalType": "address[]",
          "name": "",
          "type": "address[]"
        }
      ],
      "stateMutability": "view",
      "type": "function",
      "constant": true
    },
    {
      "inputs": [],
      "name": "getRecentWinNumber",
      "outputs": [
        {
          "internalType": "uint256",
          "name": "",
          "type": "uint256"
        }
      ],
      "stateMutability": "view",
      "type": "function",
      "constant": true
    },
    {
      "inputs": [],
      "name": "startLottery",
      "outputs": [],
      "stateMutability": "nonpayable",
      "type": "function"
    },
    {
      "inputs": [],
      "name": "enter",
      "outputs": [],
      "stateMutability": "nonpayable",
      "type": "function"
    },
    {
      "inputs": [],
      "name": "endLottery",
      "outputs": [],
      "stateMutability": "nonpayable",
      "type": "function"
    },
    {
      "inputs": [],
      "name": "refund",
      "outputs": [],
      "stateMutability": "nonpayable",
      "type": "function"
    }
  ],
  "bytecode": "0x60c06040523480156200001157600080fd5b5060405162002b9638038062002b96833981810160405260808110156200003757600080fd5b810190808051906020019092919080519060200190929190805190602001909291908051906020019092919050505082828173ffffffffffffffffffffffffffffffffffffffff1660a08173ffffffffffffffffffffffffffffffffffffffff1660601b815250508073ffffffffffffffffffffffffffffffffffffffff1660808173ffffffffffffffffffffffffffffffffffffffff1660601b8152505050506000620000ea6200027060201b60201c565b905080600160006101000a81548173ffffffffffffffffffffffffffffffffffffffff021916908373ffffffffffffffffffffffffffffffffffffffff1602179055508073ffffffffffffffffffffffffffffffffffffffff16600073ffffffffffffffffffffffffffffffffffffffff167f8be0079c531659141344cd1fd0a4f28419497f9722a3daafe3b4186f6b6457e060405160405180910390a35033600260006101000a81548173ffffffffffffffffffffffffffffffffffffffff021916908373ffffffffffffffffffffffffffffffffffffffff16021790555083600460006101000a81548173ffffffffffffffffffffffffffffffffffffffff021916908373ffffffffffffffffffffffffffffffffffffffff160217905550674563918244f40000600781905550605060088190555067016345785d8a000060098190555061012c600c819055506001601160006101000a81548160ff021916908360028111156200025a57fe5b0217905550806010819055505050505062000278565b600033905090565b60805160601c60a05160601c6128ef620002a76000398061121d52806123fb5250806123bf52506128ef6000f3fe608060405234801561001057600080fd5b50600436106101a95760003560e01c8063715018a6116100f9578063a4f320c511610097578063f077b97411610071578063f077b97414610577578063f2fde38b146105d6578063f71d96cb1461061a578063fca6ec6a14610688576101a9565b8063a4f320c5146104f5578063b3e022de146104ff578063e97dcb621461056d576101a9565b80638b5b9ccc116100d35780638b5b9ccc146103f65780638da5cb5b146104555780638f5164381461049f57806394985ddd146104bd576101a9565b8063715018a6146103b05780637b0a47ee146103ba5780637b4d3173146103d8576101a9565b80634388d39e11610166578063557ed1ba11610140578063557ed1ba1461033e578063590e1ae31461035c57806361728f39146103665780636939864b14610384576101a9565b80634388d39e146102c05780634e3d7281146102de5780635257cd90146102fc576101a9565b806301889611146101ae578063029b42a0146101cc5780631593a8c714610244578063160344e21461024e5780631936836e146102585780632c38727514610276575b600080fd5b6101b66106a6565b6040518082815260200191505060405180910390f35b610202600480360360408110156101e257600080fd5b8101908080359060200190929190803590602001909291905050506106ac565b604051808273ffffffffffffffffffffffffffffffffffffffff1673ffffffffffffffffffffffffffffffffffffffff16815260200191505060405180910390f35b61024c6106f7565b005b6102566108f9565b005b610260610a7c565b6040518082815260200191505060405180910390f35b61027e610a86565b604051808273ffffffffffffffffffffffffffffffffffffffff1673ffffffffffffffffffffffffffffffffffffffff16815260200191505060405180910390f35b6102c8610aac565b6040518082815260200191505060405180910390f35b6102e6610ab2565b6040518082815260200191505060405180910390f35b6103286004803603602081101561031257600080fd5b8101908080359060200190929190505050610ab8565b6040518082815260200191505060405180910390f35b610346610ad9565b6040518082815260200191505060405180910390f35b610364610ae1565b005b61036e610fc8565b6040518082815260200191505060405180910390f35b61038c610fce565b6040518082600281111561039c57fe5b60ff16815260200191505060405180910390f35b6103b8610fe1565b005b6103c2611151565b6040518082815260200191505060405180910390f35b6103e0611157565b6040518082815260200191505060405180910390f35b6103fe61115d565b6040518080602001828103825283818151815260200191508051906020019060200280838360005b83811015610441578082015181840152602081019050610426565b505050509050019250505060405180910390f35b61045d6111eb565b604051808273ffffffffffffffffffffffffffffffffffffffff1673ffffffffffffffffffffffffffffffffffffffff16815260200191505060405180910390f35b6104a7611215565b6040518082815260200191505060405180910390f35b6104f3600480360360408110156104d357600080fd5b81019080803590602001909291908035906020019092919050505061121b565b005b6104fd6112ea565b005b61052b6004803603602081101561051557600080fd5b81019080803590602001909291905050506112f3565b604051808273ffffffffffffffffffffffffffffffffffffffff1673ffffffffffffffffffffffffffffffffffffffff16815260200191505060405180910390f35b61057561132f565b005b61057f6116fa565b6040518080602001828103825283818151815260200191508051906020019060200280838360005b838110156105c25780820151818401526020810190506105a7565b505050509050019250505060405180910390f35b610618600480360360208110156105ec57600080fd5b81019080803573ffffffffffffffffffffffffffffffffffffffff169060200190929190505050611788565b005b6106466004803603602081101561063057600080fd5b810190808035906020019092919050505061197d565b604051808273ffffffffffffffffffffffffffffffffffffffff1673ffffffffffffffffffffffffffffffffffffffff16815260200191505060405180910390f35b6106906119b9565b6040518082815260200191505060405180910390f35b60095481565b601260205281600052604060002081815481106106c557fe5b906000526020600020016000915091509054906101000a900473ffffffffffffffffffffffffffffffffffffffff1681565b6106ff6119bf565b73ffffffffffffffffffffffffffffffffffffffff1661071d6111eb565b73ffffffffffffffffffffffffffffffffffffffff16146107a6576040517f08c379a00000000000000000000000000000000000000000000000000000000081526004018080602001828103825260208152602001807f4f776e61626c653a2063616c6c6572206973206e6f7420746865206f776e657281525060200191505060405180910390fd5b600060028111156107b357fe5b601160009054906101000a900460ff1660028111156107ce57fe5b14610841576040517f08c379a000000000000000000000000000000000000000000000000000000000815260040180806020018281038252601b8152602001807f656e64206661696c3a206c6f7474657279206e6f74206f70656e21000000000081525060200191505060405180910390fd5b600b54421180156108585750600c54600b54420311155b6108ca576040517f08c379a00000000000000000000000000000000000000000000000000000000081526004018080602001828103825260168152602001807f656e64206661696c3a20696e76616c69642074696d650000000000000000000081525060200191505060405180910390fd5b6002601160006101000a81548160ff021916908360028111156108e957fe5b02179055506108f66119c7565b50565b6109016119bf565b73ffffffffffffffffffffffffffffffffffffffff1661091f6111eb565b73ffffffffffffffffffffffffffffffffffffffff16146109a8576040517f08c379a00000000000000000000000000000000000000000000000000000000081526004018080602001828103825260208152602001807f4f776e61626c653a2063616c6c6572206973206e6f7420746865206f776e657281525060200191505060405180910390fd5b600160028111156109b557fe5b601160009054906101000a900460ff1660028111156109d057fe5b14610a43576040517f08c379a000000000000000000000000000000000000000000000000000000000815260040180806020018281038252601f8152602001807f7374617274206661696c3a206c6f7474657279206e6f7420636c6f736564210081525060200191505060405180910390fd5b6000601160006101000a81548160ff02191690836002811115610a6257fe5b0217905550600c544201600b819055506000600a81905550565b6000600654905090565b600460009054906101000a900473ffffffffffffffffffffffffffffffffffffffff1681565b60065481565b60075481565b600e8181548110610ac557fe5b906000526020600020016000915090505481565b600042905090565b610ae96119bf565b73ffffffffffffffffffffffffffffffffffffffff16610b076111eb565b73ffffffffffffffffffffffffffffffffffffffff1614610b90576040517f08c379a00000000000000000000000000000000000000000000000000000000081526004018080602001828103825260208152602001807f4f776e61626c653a2063616c6c6572206973206e6f7420746865206f776e657281525060200191505060405180910390fd5b60006002811115610b9d57fe5b601160009054906101000a900460ff166002811115610bb857fe5b14610c2b576040517f08c379a000000000000000000000000000000000000000000000000000000000815260040180806020018281038252601e8152602001807f726566756e64206661696c3a206c6f7474657279206e6f74206f70656e21000081525060200191505060405180910390fd5b6000600f8054905011610ca6576040517f08c379a00000000000000000000000000000000000000000000000000000000081526004018080602001828103825260188152602001807f726566756e64206572726f723a206e6f20706c6179657221000000000000000081525060200191505060405180910390fd5b600c54600b54420311610d21576040517f08c379a00000000000000000000000000000000000000000000000000000000081526004018080602001828103825260198152602001807f726566756e64206661696c3a20696e76616c69642074696d650000000000000081525060200191505060405180910390fd5b60008090505b600f80549050811015610ee557600460009054906101000a900473ffffffffffffffffffffffffffffffffffffffff1673ffffffffffffffffffffffffffffffffffffffff1663a9059cbb600f8381548110610d7f57fe5b9060005260206000200160009054906101000a900473ffffffffffffffffffffffffffffffffffffffff166007546040518363ffffffff1660e01b8152600401808373ffffffffffffffffffffffffffffffffffffffff1673ffffffffffffffffffffffffffffffffffffffff16815260200182815260200192505050602060405180830381600087803b158015610e1657600080fd5b505af1158015610e2a573d6000803e3d6000fd5b505050506040513d6020811015610e4057600080fd5b810190808051906020019092919050505050600067ffffffffffffffff81118015610e6a57600080fd5b50604051908082528060200260200182016040528015610e995781602001602082028036833780820191505090505b5060126000600e8481548110610eab57fe5b906000526020600020015481526020019081526020016000209080519060200190610ed7929190612702565b508080600101915050610d27565b506001601160006101000a81548160ff02191690836002811115610f0557fe5b0217905550600067ffffffffffffffff81118015610f2257600080fd5b50604051908082528060200260200182016040528015610f515781602001602082028036833780820191505090505b50600e9080519060200190610f6792919061278c565b50600067ffffffffffffffff81118015610f8057600080fd5b50604051908082528060200260200182016040528015610faf5781602001602082028036833780820191505090505b50600f9080519060200190610fc5929190612702565b50565b60105481565b601160009054906101000a900460ff1681565b610fe96119bf565b73ffffffffffffffffffffffffffffffffffffffff166110076111eb565b73ffffffffffffffffffffffffffffffffffffffff1614611090576040517f08c379a00000000000000000000000000000000000000000000000000000000081526004018080602001828103825260208152602001807f4f776e61626c653a2063616c6c6572206973206e6f7420746865206f776e657281525060200191505060405180910390fd5b600073ffffffffffffffffffffffffffffffffffffffff16600160009054906101000a900473ffffffffffffffffffffffffffffffffffffffff1673ffffffffffffffffffffffffffffffffffffffff167f8be0079c531659141344cd1fd0a4f28419497f9722a3daafe3b4186f6b6457e060405160405180910390a36000600160006101000a81548173ffffffffffffffffffffffffffffffffffffffff021916908373ffffffffffffffffffffffffffffffffffffffff160217905550565b60085481565b600a5481565b6060600f8054806020026020016040519081016040528092919081815260200182805480156111e157602002820191906000526020600020905b8160009054906101000a900473ffffffffffffffffffffffffffffffffffffffff1673ffffffffffffffffffffffffffffffffffffffff1681526020019060010190808311611197575b5050505050905090565b6000600160009054906101000a900473ffffffffffffffffffffffffffffffffffffffff16905090565b600c5481565b7f000000000000000000000000000000000000000000000000000000000000000073ffffffffffffffffffffffffffffffffffffffff163373ffffffffffffffffffffffffffffffffffffffff16146112dc576040517f08c379a000000000000000000000000000000000000000000000000000000000815260040180806020018281038252601f8152602001807f4f6e6c7920565246436f6f7264696e61746f722063616e2066756c66696c6c0081525060200191505060405180910390fd5b6112e68282611ab5565b5050565b42600d81905550565b6005818154811061130057fe5b906000526020600020016000915054906101000a900473ffffffffffffffffffffffffffffffffffffffff1681565b6000600281111561133c57fe5b601160009054906101000a900460ff16600281111561135757fe5b146113ca576040517f08c379a000000000000000000000000000000000000000000000000000000000815260040180806020018281038252601d8152602001807f656e746572206661696c3a206c6f7474657279206e6f74206f70656e2100000081525060200191505060405180910390fd5b600b54421115611442576040517f08c379a000000000000000000000000000000000000000000000000000000000815260040180806020018281038252601b8152602001807f656e746572206572726f723a206c6f747465727920656e64656421000000000081525060200191505060405180910390fd5b600754600460009054906101000a900473ffffffffffffffffffffffffffffffffffffffff1673ffffffffffffffffffffffffffffffffffffffff166370a08231336040518263ffffffff1660e01b8152600401808273ffffffffffffffffffffffffffffffffffffffff1673ffffffffffffffffffffffffffffffffffffffff16815260200191505060206040518083038186803b1580156114e457600080fd5b505afa1580156114f8573d6000803e3d6000fd5b505050506040513d602081101561150e57600080fd5b81019080805190602001909291905050501015611593576040517f08c379a000000000000000000000000000000000000000000000000000000000815260040180806020018281038252601d8152602001807f656e746572206661696c3a2044616920696e73756666696369656e742100000081525060200191505060405180910390fd5b33600360006101000a81548173ffffffffffffffffffffffffffffffffffffffff021916908373ffffffffffffffffffffffffffffffffffffffff160217905550600460009054906101000a900473ffffffffffffffffffffffffffffffffffffffff1673ffffffffffffffffffffffffffffffffffffffff166323b872dd33306007546040518463ffffffff1660e01b8152600401808473ffffffffffffffffffffffffffffffffffffffff1673ffffffffffffffffffffffffffffffffffffffff1681526020018373ffffffffffffffffffffffffffffffffffffffff1673ffffffffffffffffffffffffffffffffffffffff1681526020018281526020019350505050602060405180830381600087803b1580156116b357600080fd5b505af11580156116c7573d6000803e3d6000fd5b505050506040513d60208110156116dd57600080fd5b8101908080519060200190929190505050506116f76119c7565b50565b6060600580548060200260200160405190810160405280929190818152602001828054801561177e57602002820191906000526020600020905b8160009054906101000a900473ffffffffffffffffffffffffffffffffffffffff1673ffffffffffffffffffffffffffffffffffffffff1681526020019060010190808311611734575b5050505050905090565b6117906119bf565b73ffffffffffffffffffffffffffffffffffffffff166117ae6111eb565b73ffffffffffffffffffffffffffffffffffffffff1614611837576040517f08c379a00000000000000000000000000000000000000000000000000000000081526004018080602001828103825260208152602001807f4f776e61626c653a2063616c6c6572206973206e6f7420746865206f776e657281525060200191505060405180910390fd5b600073ffffffffffffffffffffffffffffffffffffffff168173ffffffffffffffffffffffffffffffffffffffff1614156118bd576040517f08c379a00000000000000000000000000000000000000000000000000000000081526004018080602001828103825260268152602001806128946026913960400191505060405180910390fd5b8073ffffffffffffffffffffffffffffffffffffffff16600160009054906101000a900473ffffffffffffffffffffffffffffffffffffffff1673ffffffffffffffffffffffffffffffffffffffff167f8be0079c531659141344cd1fd0a4f28419497f9722a3daafe3b4186f6b6457e060405160405180910390a380600160006101000a81548173ffffffffffffffffffffffffffffffffffffffff021916908373ffffffffffffffffffffffffffffffffffffffff16021790555050565b600f818154811061198a57fe5b906000526020600020016000915054906101000a900473ffffffffffffffffffffffffffffffffffffffff1681565b600b5481565b600033905090565b6000600160028111156119d657fe5b601160009054906101000a900460ff1660028111156119f157fe5b1415611a65576040517f08c379a00000000000000000000000000000000000000000000000000000000081526004018080602001828103825260208152602001807f72616e646f6d6e657373206661696c3a206c6f747465727920636c6f7365642181525060200191505060405180910390fd5b6000611a756010546009546123bb565b90507fe7e9d173875e49599c9dc06ea20fd1d8878525700b2711462f8379cccdc637eb816040518082815260200191505060405180910390a18091505090565b60008111611b2b576040517f08c379a00000000000000000000000000000000000000000000000000000000081526004018080602001828103825260178152602001807f72616e646f6d206e756d626572206e6f7420666f756e6400000000000000000081525060200191505060405180910390fd5b80600a819055507fffee75d0d1c64e3adb1f529cbc39a7cb81e544e676268e5759896567b7576b0a600a5482604051808381526020018281526020019250505060405180910390a160006002811115611b8057fe5b601160009054906101000a900460ff166002811115611b9b57fe5b1415611d42576000600161270f600a5481611bb257fe5b06019050600e81908060018154018082558091505060019003906000526020600020016000909190919091505560126000828152602001908152602001600020600360009054906101000a900473ffffffffffffffffffffffffffffffffffffffff169080600181540180825580915050600190039060005260206000200160009091909190916101000a81548173ffffffffffffffffffffffffffffffffffffffff021916908373ffffffffffffffffffffffffffffffffffffffff160217905550600f600360009054906101000a900473ffffffffffffffffffffffffffffffffffffffff169080600181540180825580915050600190039060005260206000200160009091909190916101000a81548173ffffffffffffffffffffffffffffffffffffffff021916908373ffffffffffffffffffffffffffffffffffffffff1602179055506000600360006101000a81548173ffffffffffffffffffffffffffffffffffffffff021916908373ffffffffffffffffffffffffffffffffffffffff160217905550506123b7565b6000600f8054905011611dbd576040517f08c379a00000000000000000000000000000000000000000000000000000000081526004018080602001828103825260118152602001807f6572726f723a206e6f20706c617965722100000000000000000000000000000081525060200191505060405180910390fd5b6000600e80549050600a5481611dcf57fe5b069050600e8181548110611ddf57fe5b90600052602060002001546006819055506012600060065481526020019081526020016000206005908054611e159291906127d9565b5060008090505b600e80549050811015611ebc57600067ffffffffffffffff81118015611e4157600080fd5b50604051908082528060200260200182016040528015611e705781602001602082028036833780820191505090505b5060126000600e8481548110611e8257fe5b906000526020600020015481526020019081526020016000209080519060200190611eae929190612702565b508080600101915050611e1c565b506001601160006101000a81548160ff02191690836002811115611edc57fe5b0217905550600067ffffffffffffffff81118015611ef957600080fd5b50604051908082528060200260200182016040528015611f285781602001602082028036833780820191505090505b50600e9080519060200190611f3e92919061278c565b50600067ffffffffffffffff81118015611f5757600080fd5b50604051908082528060200260200182016040528015611f865781602001602082028036833780820191505090505b50600f9080519060200190611f9c929190612702565b5060006005805490506064600854600460009054906101000a900473ffffffffffffffffffffffffffffffffffffffff1673ffffffffffffffffffffffffffffffffffffffff166370a08231306040518263ffffffff1660e01b8152600401808273ffffffffffffffffffffffffffffffffffffffff1673ffffffffffffffffffffffffffffffffffffffff16815260200191505060206040518083038186803b15801561204957600080fd5b505afa15801561205d573d6000803e3d6000fd5b505050506040513d602081101561207357600080fd5b8101908080519060200190929190505050028161208c57fe5b048161209457fe5b04905060008090505b6005805490508110156121d357600460009054906101000a900473ffffffffffffffffffffffffffffffffffffffff1673ffffffffffffffffffffffffffffffffffffffff1663a9059cbb600583815481106120f557fe5b9060005260206000200160009054906101000a900473ffffffffffffffffffffffffffffffffffffffff16846040518363ffffffff1660e01b8152600401808373ffffffffffffffffffffffffffffffffffffffff1673ffffffffffffffffffffffffffffffffffffffff16815260200182815260200192505050602060405180830381600087803b15801561218a57600080fd5b505af115801561219e573d6000803e3d6000fd5b505050506040513d60208110156121b457600080fd5b810190808051906020019092919050505050808060010191505061209d565b50600460009054906101000a900473ffffffffffffffffffffffffffffffffffffffff1673ffffffffffffffffffffffffffffffffffffffff1663a9059cbb600260009054906101000a900473ffffffffffffffffffffffffffffffffffffffff16600460009054906101000a900473ffffffffffffffffffffffffffffffffffffffff1673ffffffffffffffffffffffffffffffffffffffff166370a08231306040518263ffffffff1660e01b8152600401808273ffffffffffffffffffffffffffffffffffffffff1673ffffffffffffffffffffffffffffffffffffffff16815260200191505060206040518083038186803b1580156122d457600080fd5b505afa1580156122e8573d6000803e3d6000fd5b505050506040513d60208110156122fe57600080fd5b81019080805190602001909291905050506040518363ffffffff1660e01b8152600401808373ffffffffffffffffffffffffffffffffffffffff1673ffffffffffffffffffffffffffffffffffffffff16815260200182815260200192505050602060405180830381600087803b15801561237857600080fd5b505af115801561238c573d6000803e3d6000fd5b505050506040513d60208110156123a257600080fd5b81019080805190602001909291905050505050505b5050565b60007f000000000000000000000000000000000000000000000000000000000000000073ffffffffffffffffffffffffffffffffffffffff16634000aea07f00000000000000000000000000000000000000000000000000000000000000008486600060405160200180838152602001828152602001925050506040516020818303038152906040526040518463ffffffff1660e01b8152600401808473ffffffffffffffffffffffffffffffffffffffff1673ffffffffffffffffffffffffffffffffffffffff16815260200183815260200180602001828103825283818151815260200191508051906020019080838360005b838110156124cb5780820151818401526020810190506124b0565b50505050905090810190601f1680156124f85780820380516001836020036101000a031916815260200191505b50945050505050602060405180830381600087803b15801561251957600080fd5b505af115801561252d573d6000803e3d6000fd5b505050506040513d602081101561254357600080fd5b810190808051906020019092919050505050600061257684600030600080898152602001908152602001600020546125c7565b905061259e60016000808781526020019081526020016000205461264190919063ffffffff16565b600080868152602001908152602001600020819055506125be84826126c9565b91505092915050565b600084848484604051602001808581526020018481526020018373ffffffffffffffffffffffffffffffffffffffff1673ffffffffffffffffffffffffffffffffffffffff1681526020018281526020019450505050506040516020818303038152906040528051906020012060001c9050949350505050565b6000808284019050838110156126bf576040517f08c379a000000000000000000000000000000000000000000000000000000000815260040180806020018281038252601b8152602001807f536166654d6174683a206164646974696f6e206f766572666c6f77000000000081525060200191505060405180910390fd5b8091505092915050565b60008282604051602001808381526020018281526020019250505060405160208183030381529060405280519060200120905092915050565b82805482825590600052602060002090810192821561277b579160200282015b8281111561277a5782518260006101000a81548173ffffffffffffffffffffffffffffffffffffffff021916908373ffffffffffffffffffffffffffffffffffffffff16021790555091602001919060010190612722565b5b509050612788919061282b565b5090565b8280548282559060005260206000209081019282156127c8579160200282015b828111156127c75782518255916020019190600101906127ac565b5b5090506127d5919061286e565b5090565b82805482825590600052602060002090810192821561281a5760005260206000209182015b828111156128195782548255916001019190600101906127fe565b5b509050612827919061282b565b5090565b61286b91905b8082111561286757600081816101000a81549073ffffffffffffffffffffffffffffffffffffffff021916905550600101612831565b5090565b90565b61289091905b8082111561288c576000816000905550600101612874565b5090565b9056fe4f776e61626c653a206e6577206f776e657220697320746865207a65726f2061646472657373a26469706673582212206ad8a74edd223167fed94e3453f20784ca24f46caf3f52df2eb1745ec5399f5b64736f6c63430006060033",
  "immutableReferences": {
    "1512": [
      {
        "length": 32,
        "start": 9151
      }
    ],
    "1514": [
      {
        "length": 32,
        "start": 4637
      },
      {
        "length": 32,
        "start": 9211
      }
    ]
  },
  "source": "/**\n *Submitted for DeepGo on 2021-07-17\n*/\n\n//sol Lottery\n// Lottery application: betting Dai in pool and winner is selected by random number requested from Chainlink\n// @authors:\n// Andrew <github.com/AndyBeHere>\n// usage:\n// todo\n//\n// info related to token used in this contract in Kovan testnet:\n// get Chainlink VRF Contract information from https://docs.chain.link/docs/vrf-contracts/\n// LINK\t0xa36085F69e2889c224210F603D836748e7dC0088; decimal 18\n// VRF Coordinator\t0xdD3782915140c8f3b190B5D67eAc6dc5760C46E9\n// Key Hash\t0x6c3699283bda56ad74f6b855546325b68d482e983852a7a82979cc4807b641f4\n// Fee\t0.1 LINK\n// Dai 0x4F96Fe3b7A6Cf9725f59d353F723c1bDb64CA6Aa; decimal 18\npragma solidity ^0.6.6;\n\nimport \"../node_modules/@chainlink/contracts/src/v0.6/interfaces/AggregatorV3Interface.sol\";\nimport \"../node_modules/@chainlink/contracts/src/v0.6/VRFConsumerBase.sol\";\nimport \"../node_modules/@openzeppelin/contracts/token/ERC20/IERC20.sol\";\nimport \"../node_modules/@openzeppelin/contracts/access/Ownable.sol\";\n\n// invoke interface: IERC20(tokenMapping[_ticker].tokenAddress).balanceOf(msg.sender)\n// -> IERC20(daiAddress).transfer(address(this), oneBet)\n\ncontract Lottery is VRFConsumerBase, Ownable {\n    using SafeMathChainlink for uint;\n\n    enum LotteryState {OPEN, CLOSED, CALCULATING_WINNER}\n\n    address private admin;\n    address private currentPlayer;\n    address public daiAddress;\n    address[] public recentWinners;\n    uint256 public recentWinNumber;\n    uint256 public oneBet;\n    uint256 public rewardRate;\n    uint256 public linkFee;\n    uint256 public randomnessGet;\n    uint256 public drawStartTime;\n    // bet time interval and draw time interval \n    uint256 public timeInterval;\n    uint testNumber;\n    // saving random number generated by players (reset to 0 when lottery is closing)\n    uint[] public randomNumbers;\n    address[] public players;\n    bytes32 public keyHash;\n    LotteryState public lotteryState;\n    // mapping random number to list of player address (can be repetitive)\n    mapping(uint256 => address[]) public numberToPlayers;\n\n    event RequestRandomness(bytes32 requestId);\n    event Randomness(uint randomnessGet, uint randomness);\n\n    constructor(address _dai, address _vrfCoordinator, address _link, bytes32 _keyhash) public\n        VRFConsumerBase(\n            _vrfCoordinator,\n            _link\n        ) {\n        admin = msg.sender;\n        daiAddress = _dai;\n        oneBet = 5 * 10 ** 18;\n        rewardRate = 80;\n        linkFee = 10 ** 17;\n        timeInterval = 5 minutes;\n        lotteryState = LotteryState.CLOSED;\n        keyHash = _keyhash;\n    }\n\n    // for test\n    function setTestNumber() public {\n        testNumber = now;\n    }\n\n    // for test\n    function getTime() public view returns(uint) {\n        return now;\n    }\n\n    function getPlayers() public view returns(address[] memory) {\n        return players;\n    }\n\n    function getRecentWinners() public view returns(address[] memory) {\n        return recentWinners;\n    }\n\n    function getRecentWinNumber() public view returns(uint) {\n        return recentWinNumber;\n    } \n\n    function startLottery() public onlyOwner {\n        require(lotteryState == LotteryState.CLOSED, \"start fail: lottery not closed!\");\n        lotteryState = LotteryState.OPEN;\n        drawStartTime = now + timeInterval;\n        randomnessGet = 0;\n    }\n\n    function enter() public {\n        // Dai token sent >= oneBet; \n        require(lotteryState == LotteryState.OPEN, \"enter fail: lottery not open!\");\n        require(now <= drawStartTime, \"enter error: lottery ended!\");\n        require(IERC20(daiAddress).balanceOf(msg.sender) >= oneBet, \"enter fail: Dai insufficient!\");\n\n        // update state\n        currentPlayer = msg.sender;\n\n        // pay for bet\n        IERC20(daiAddress).transferFrom(msg.sender, address(this), oneBet);\n\n        // generate random number\n        getRandomNumber();\n    }\n\n    /** \n     * @dev end lottery: if there is Dai in pool then send bonus to winner and withdraw fee to admin\n     */\n    function endLottery() public onlyOwner {\n        require(lotteryState == LotteryState.OPEN, \"end fail: lottery not open!\");\n        require(now > drawStartTime && now - drawStartTime <= timeInterval, \"end fail: invalid time\");\n        // update state\n        lotteryState = LotteryState.CALCULATING_WINNER;\n        getRandomNumber();\n    }\n\n    // function refund() public onlyOwner {\n    //     _refund();\n    // }\n\n    function refund() public onlyOwner {\n        // require(msg.sender == admin);\n        require(lotteryState == LotteryState.OPEN, \"refund fail: lottery not open!\");\n        require(players.length > 0, \"refund error: no player!\");\n        require(now - drawStartTime > timeInterval, \"refund fail: invalid time\");\n\n        for (uint i = 0; i < players.length; i++) {\n            IERC20(daiAddress).transfer(players[i], oneBet);\n            numberToPlayers[randomNumbers[i]] = new address[](0x0);\n        }\n\n        lotteryState = LotteryState.CLOSED; \n        randomNumbers = new uint[](0);\n        players = new address[](0x0);\n    }\n\n    function getRandomNumber() private returns(bytes32) {\n        require(lotteryState != LotteryState.CLOSED, \"randomness fail: lottery closed!\");\n        bytes32 requestId = requestRandomness(keyHash, linkFee); \n        emit RequestRandomness(requestId);\n        return requestId;\n    }\n\n  /**\n   * @notice fulfillRandomness handles the VRF response. This contract implement\n   * @notice it and override base one. It is called by VRFCoordinator.\n   *\n   * @dev VRFConsumerBase expects its subcontracts to have a method with this\n   * @dev signature, and will call it once it has verified the proof\n   * @dev associated with the randomness. (It is triggered via a call to\n   * @dev rawFulfillRandomness, below.)\n   *\n   * @param requestId The Id initially returned by requestRandomness\n   * @param randomness the VRF output\n   * \n   * Tips: Base functions can be overridden by inheriting contracts to change \n   * their behavior if they are marked as virtual. The overriding function must \n   * then use the override  keyword in the function header\n   */\n    function fulfillRandomness(bytes32 requestId, uint256 randomness) internal override {\n        // check if local randomness received override state variable \n        require(randomness > 0, \"random number not found\");\n        randomnessGet = randomness;\n        emit Randomness(randomnessGet, randomness);\n\n        if (lotteryState == LotteryState.OPEN) {\n            uint256 randomNumber = randomnessGet % 9999 + 1; // 1 ~ 9999\n\n            // update state;\n            randomNumbers.push(randomNumber);\n            numberToPlayers[randomNumber].push(currentPlayer);\n            players.push(currentPlayer);\n            currentPlayer = address(0x0);\n        } else {\n            require(players.length > 0, \"error: no player!\");\n\n            // select winners randomly\n            uint256 randomIndex = randomnessGet % randomNumbers.length;\n            recentWinNumber = randomNumbers[randomIndex];\n            recentWinners = numberToPlayers[recentWinNumber];\n            \n            // update state\n            for (uint256 i = 0; i < randomNumbers.length; i++) {\n                numberToPlayers[randomNumbers[i]] = new address[](0x0);\n            }\n\n            lotteryState = LotteryState.CLOSED; \n            randomNumbers = new uint[](0);\n            players = new address[](0x0);\n\n            // transfer to winner and admin\n            uint256 bonus = IERC20(daiAddress).balanceOf(address(this)) * rewardRate / 100 / recentWinners.length;\n\n            for (uint256 i = 0; i < recentWinners.length; i++) {\n                IERC20(daiAddress).transfer(recentWinners[i], bonus);\n            }\n            IERC20(daiAddress).transfer(admin, IERC20(daiAddress).balanceOf(address(this)));\n        }\n    }\n\n}\n",
  "sourcePath": "/Users/andrew/Desktop/crypto/ethereum-201/lottery/contracts/Lottery.sol",
  "compiler": {
    "name": "solc",
    "version": "0.6.6+commit.6c089d02.Emscripten.clang"
  },
  "schemaVersion": "3.4.1",
  "updatedAt": "2021-07-17T05:16:39.531Z",
  "networkType": "ethereum",
  "devdoc": {
    "methods": {
      "endLottery()": {
        "details": "end lottery: if there is Dai in pool then send bonus to winner and withdraw fee to admin"
      },
      "owner()": {
        "details": "Returns the address of the current owner."
      },
      "renounceOwnership()": {
        "details": "Leaves the contract without owner. It will not be possible to call `onlyOwner` functions anymore. Can only be called by the current owner.     * NOTE: Renouncing ownership will leave the contract without an owner, thereby removing any functionality that is only available to the owner."
      },
      "transferOwnership(address)": {
        "details": "Transfers ownership of the contract to a new account (`newOwner`). Can only be called by the current owner."
      }
    }
  },
  "userdoc": {
    "methods": {}
  }
}